:020000040800F2
:1000000000040020C5020008391E0008911C0008E9
:10001000311E000841030008812200080000000092
:10002000000000000000000000000000592000084F
:100030004903000800000000411E0008612000087C
:10004000DF02000800000000DF020008DF020008F5
:10005000DF020008DF0200080000000000000000CE
:10006000DF020008DF020008DF02000800000000D5
:1000700000000000DF020008000000000000000097
:10008000DF020008DF020008DF020008DF020008CC
:10009000DF020008DF020008DF020008DF020008BC
:1000A000DF020008DF020008DF020008DF020008AC
:1000B000DF020008DF020008DF020008DF0200089C
:1000C000DF0200080000000000000000DF0200085E
:1000D000DF020008DF020008DF020008DF0200087C
:1000E000DF020008DF020008DF020008DF0200086C
:1000F000DF020008DF020008DF020008DF0200085C
:10010000DF020008DF020008DF020008F12000081B
:100110000121000811210008DF020008DF020008A9
:10012000DF020008DF020008DF020008DF0200082B
:10013000DF020008DF020008DF020008DF0200081B
:10014000DF020008DF020008DF020008DF0200080B
:10015000DF020008DF020008DF020008DF020008FB
:10016000DF020008DF020008DF020008DF020008EB
:10017000DF020008DF020008DF020008DF020008DB
:10018000DF020008DF020008DF020008DF020008CB
:10019000DF020008DF020008DF020008DF020008BB
:1001A000DF020008DF020008DF020008DF020008AB
:1001B000DF020008DF020008DF020008DF0200089B
:1001C0000000000000000000DF020008DF0200085D
:1001D000DF020008DF02000800000000000000004D
:1001E00000000000DF020008DF020008DF02000854
:1001F000DF020008DF02000800000000000000002D
:10020000DF020008DF020008DF020008DF0200084A
:10021000DF020008DF020008DF020008DF0200083A
:10022000DF020008DF020008DF020008DF0200082A
:10023000DF020008DF020008DF020008DF0200081A
:10024000DF020008DF020008DF020008DF0200080A
:10025000DF020008DF020008DF020008DF020008FA
:10026000DF020008DF020008DF020008DF020008EA
:10027000DF020008DF020008DF020008DF020008DA
:10028000DF020008DF020008DF020008DF020008CA
:10029000DF02000800000000000000000000000075
:1002A000DF020008DF020008DF020008DF020008AA
:1002B000DFF80CD000F02AF800480047E1220008DF
:1002C000000400200648804706480047FEE7FEE796
:1002D000FEE7FEE7FEE7FEE7FEE7FEE7FEE7FEE7F6
:1002E00069200008B1020008D2B201E000F8012B39
:1002F000491EFBD270470022F6E710B513460A46A6
:1003000004461946FFF7F0FF204610BD1CB509480A
:100310000090094801900546009C06E0E06840F026
:10032000010394E8070098471034AC42F6D3FFF776
:10033000C3FF00001424000844240008000000004B
:10034000FEE7000000000000704700000000000011
:1003500072B600BFFEE70000B0B5044600F0F0F84A
:1003600040F200010546C2F20041621C097818BF44
:100370000C4400BF00F0E4F8401BA042FAD3B0BD2B
:100380002DE9F04F84B00D68002D00F0CB80039074
:100390004FF67F7300F12002C0F229034FF0000BEB
:1003A0000027002600920398029103EA9020039B05
:1003B000019009E001360D6835FA06F207F10207EF
:1003C0000BF1040B00F0AE80012000FA06F415EAF0
:1003D0000408EFD0D1F80490032009F0030AAAF131
:1003E0000105012D00FA07F514D8D3F808C0D1E9AA
:1003F00002E22CEA050CBA4042EA0C029A60C9F308
:100400000012D3F804C02CEA0404B24022435A601C
:1004100008E000BFD1F808E0BAF1030F08BFBEF151
:10042000010F29D0DA684FEA460CE843AA430EFAD6
:1004300007F5BAF1020F42EA0502DA601AD16FF04D
:100440000301009B01EA56020BF01C040F2153F834
:1004500002E001FA04F902992EEA090E0D6905FA83
:1004600004F444EA0E059D50D1F80490039B09F072
:10047000030A09E0029907E04FF0030ABC460AFAB2
:1004800007F20299D04300BF1A680AFA0CF502403D
:1004900019F4403F42EA05021A608BD040F2305313
:1004A00026F00302C5F600030BF00C050F2052F8EE
:1004B00003C000FA05F401982CEA040400FA05F5DB
:1004C0004FF0B0402543D55002684D6842EA080419
:1004D000EB0258BF22EA080440F2040CC5F6000CF7
:1004E0000460AC02DCF8002042EA080358BF22EAAC
:1004F0000803AC03CCF80030DCF8802042EA0803A3
:1005000058BF22EA0803ED03CCF88030DCF87C20E9
:1005100042EA080358BF22EA0803CCF87C30039B68
:1005200048E700BF04B0BDE8F08F00000000000005
:100530001823002A08BF2823C1507047000000007C
:1005400040F2F000C2F20040006870470000000076
:1005500040F2000040F2F001C2F20040C2F200415D
:1005600000780A681044086070470000000000002E
:1005700080B5032000F0ECF80F2000F009F8002807
:100580001CBF012080BD00F093F8002080BD00005A
:10059000B0B540F20005C2F200452978F1B1044639
:1005A00040F20800C2F200404FF47A72B2FBF1F15F
:1005B0000068B0FBF1F000F043FD0F2C01464FF056
:1005C00001000AD8002918BFB0BD4FF0FF3000224B
:1005D000214600F08DF800206C60B0BD0120B0BD58
:1005E00010B54EF6A0514378CEF2000190F800C04D
:1005F00041F8083C0B6823F001030B600B6823F003
:1006000001030B60436841F8043C90F80CE0C27AA7
:10061000837A447B120642EA0E7290F80EE042EAB8
:10062000C342C37B42EA8442447A42EA4E42007AA1
:1006300042EA034242EA042242EA400040EA0C0055
:10064000086010BD000000004EF62450CEF20000FD
:10065000BFF35F8F016821F48031016000210167E1
:10066000BFF34F8FBFF36F8F704700000000000093
:100670004EF6A051CEF2000141F8080C086820F0B7
:1006800001000860704700004EF6245140F0010060
:10069000CEF20001BFF35F8F0867086840F4803036
:1006A0000860BFF34F8FBFF36F8F704700000000EB
:1006B00080B5042000F05CF8002808BF80BDBDE8CC
:1006C0008040FFF745BE0000002848BF704700F09B
:1006D0001F01012202FA01F14EF20012C0F34A108A
:1006E000CEF2000242F82010704700000000000027
:1006F00070B54EF60C5C4FF0FF36CEF2000C00F1F8
:10070000604505F56445DCF80030C3F3022E8EF039
:100710000703042B28BF0423BEF1030406FA03F3E6
:1007200021EA030100F00F0338BF0024043B002836
:10073000634406FA04F048BF03F10C05A14022EA25
:10074000000008430001287070BD00000000000098
:100750004EF60C514FF6FF03CEF200010A681A4024
:1007600060F30A2242F0806040F0FD70086070473C
:1007700070B544F60C060446C5F6020631683068CA
:1007800001F00701062913D120F01F00204330603B
:10079000FFF7D6FE054600BF56F8080C80070DD4BB
:1007A000FFF7CEFE401BB0F57A7FF5D917E000BF0A
:1007B00000F01F00001B18BF012070BDA4F11D0038
:1007C00001280FD8FFF7BCFE044600BF3068C00305
:1007D00008D4FFF7B5FE001BB0F57A7FF6D90120EB
:1007E00070BD00BF002070BDB0B544F61405C5F65D
:1007F0000205296821F0010108432860FFF7A0FEE7
:10080000044600BF2868800708D4FFF799FE001B44
:10081000B0F57A7FF6D90120B0BD00BF0020B0BD91
:100820002DE9F04381B0002800F0108142F2000968
:100830000446C5F20029D9F8000000F03F008842C4
:100840000DD2D9F8000020F03F000843C9F800009D
:10085000D9F8000000F03F00884240F0F78020689F
:1008600044F220464207C5F602060AD522693368DB
:1008700003F007039A4204D9336823F007031A43AD
:10088000326002070AD56269336803F070039A4246
:1008900004D9336823F070031A433260C2060AD5C4
:1008A000A269336803F4E0639A4204D9336823F4FD
:1008B000E0631A43326082060AD5E269336803F4C2
:1008C000E0439A4204D9336823F4E0431A43326088
:1008D00010F002020DD0E36856F8047C07F00F0711
:1008E000BB4206D956F8047C27F00F073B4346F875
:1008F000043CC30742D056F8080C20F00F02D4E99C
:1009000001031A4346F8082C012856F8202C0BD076
:10091000032805D002280BD192030CD496E000BF27
:10092000920108D492E000BFD20504D48EE000BF4B
:10093000520740F18B80884656F8101C21F00701C1
:10094000084346F8100CFFF7FBFD054641F28837D7
:1009500056F8100C616800F03800B0EBC10F09D0F8
:10096000FFF7EEFD401BB842F2D9032001B0BDE80D
:10097000F08300BF2068414600F002026AB1E268DD
:1009800056F8043C03F00F039A4206D256F8043C92
:1009900023F00F031A4346F8042CD9F8002002F084
:1009A0003F028A420CD9D9F8002022F03F020A43C4
:1009B000C9F80020D9F8002002F03F028A4245D150
:1009C00041070AD52169326802F00702914204D238
:1009D000326822F007021143316001070AD56169CC
:1009E000326802F07002914204D2326822F0700242
:1009F00011433160C1060AD5A169326802F4E06290
:100A0000914204D2326822F4E062114331608006E0
:100A10000AD5E069316801F4E041884204D23168C6
:100A200021F4E0410843306000F016F840F2040180
:100A300040F20802C2F20041C2F2004209681060AE
:100A4000084601B0BDE8F043FFF7A2BD012001B0A8
:100A5000BDE8F0830000000080B544F20040C5F618
:100A600002000169C1F3C201032915D002290DD08A
:100A700031BB0168890629D5016849F20002C0F23C
:100A8000D032C1F3C10122FA01F166E043F2006104
:100A9000C0F26E1161E000BF826A816AC36AD0F859
:100AA00034C0C1F3051189B102F00302022A0FD04C
:100AB00092B90268920613D49FED2E0A3FE000BF60
:100AC00040F60011C0F23D0147E000BF002144E0C4
:100AD0009FED270A11E000BF9FED240A0DE000BF43
:100AE0000268C2F3C10E49F20002C0F2D03222FA0B
:100AF0000EF200EE102AB8EE400A03F001029FED5C
:100B00001E3A524202EADC026FF35F3201EE102A13
:100B1000026B6FF35F2202EE102AB8EE411AB8EEB4
:100B2000422A01EE032A01EE101AB7EE003AB8EE9F
:100B3000411A80EE010A32EE031A20EE010A016B1F
:100B4000C1F34621013101EE101AB8EE411A80EED0
:100B5000010ABCEEC00A10EE101A806900F00F0006
:100B6000073838BF002021FA00F080BD0024744A05
:100B7000001BB74B0000000000000039000000001F
:100B800000286DD02DE9F04381B044F200460446C0
:100B9000C5F602063069B16A3768227800F0380875
:100BA00001F00309D2070ED0B8F1100F07D017F0EB
:100BB000285F00F0A980B9F1020F40F0A5806068BD
:100BC000002800F00781207880074BD42078C006E9
:100BD0000ED5B8F1080F07D017F0285F00F010818C
:100BE000B9F1010F40F00C81206A002800F0F2807A
:100BF0002078000756D4207880066BD420784007F0
:100C000000F1B280214651F8240F002800F04681FF
:100C1000B8F1180F40F03881012800F0DB80706BCC
:100C2000A16CC0F3CC00814200F03881F06A20F062
:100C30000100F062FFF784FC054600BFFFF780FC6F
:100C4000A842FBD0706B4FF6F871A26C884340EA63
:100C5000C2007063F06A40F00100F0621EE100BF64
:100C600001207047B8F1000F05D017F0285F59D068
:100C7000B9F1000F56D1E068002800F0AB80B9F15F
:100C8000000F306840F0828017F0285100F07E801D
:100C900000F018002169884279D0012001B0BDE838
:100CA000F08300BFA0690028706F00F0978040F0CB
:100CB00001007067FFF744FC054600BF706F8007B6
:100CC00099D4FFF73DFC401B0128F7D9032001B060
:100CD000BDE8F083E0690028306800F0C38040F48C
:100CE00080503060FFF72CFC054600BF3068800460
:100CF0003FF584AFFFF724FC401B01284FF00300B1
:100D0000F4D901B0BDE8F08361683068B1F5A02F77
:100D100080F28E80002900F00981B1F5803F00F05B
:100D20001981F7E0E0683168002800F0DD8021F0EB
:100D30001901D4E90423114308433060706820F09E
:100D4000FE4040EA03607060FFF7FAFB054600BF13
:100D5000306840073FF53AAFFFF7F2FB401B012830
:100D60004FF00300F4D9CCE7D6F8000440F48070CB
:100D7000C6F80004A168306F042965DC002900F082
:100D80002781012900F0488116E100BF2069316800
:100D9000B8F1000F21F0180140EA010040F0010015
:100DA00030600DD1306840F2080249F20001C2F211
:100DB0000042C0F3C100C0F2D03121FA00F010604F
:100DC00040F20400C2F200400068FFF7E1FB002897
:100DD00000F08280012001B0BDE8F08320F0010026
:100DE0007067FFF7ADFB0546706F80077FF503AFB7
:100DF000FFF7A6FB401B01284FF00300F4D980E762
:100E0000206A0028306800F0C58040F08000306023
:100E1000FFF796FB054600BF3068C0053FF5E8AE1A
:100E2000FFF78EFB401B01284FF00300F4D968E761
:100E300000F08880B1F5502F6CD140F480203060F4
:100E4000306840F4002083E0052900F0DD8085292A
:100E500040F0B28040F004003067306F40F0800016
:100E6000D8E000BF20F480503060FFF769FB0546F2
:100E7000306880047FF5C2AEFFF762FB401B01289B
:100E80004FF00300F4D93CE701206064002000F03B
:100E9000DBFF0146012000297FF433AF214651F8E2
:100EA0004C0F38B1012000F0CFFF0146012000298E
:100EB0007FF427AF214651F8740F38B30120C4F8EE
:100EC0009400022000F0C0FF01460120002908BF65
:100ED000002001B0BDE8F0837068616920F0FE4039
:100EE00040EA0160706071E621F001003060FFF7B8
:100EF00027FB0546306840077FF568AEFFF720FB0B
:100F0000401B01284FF00300F4D9FAE6002001B09D
:100F1000BDE8F08320F480303060306820F4802019
:100F20003060306820F4002016E000BF20F48030EC
:100F30003060306820F400203060306820F4802079
:100F40000AE000BF40F480203060306820F40020C8
:100F50003060306840F480303060FFF7F1FA61684B
:100F6000054699B1306880033FF52DAEFFF7E8FAEA
:100F7000401B64284FF00300F4D9C2E6FFF7E0FA03
:100F8000401B64284FF003003FF6BBAE306880037F
:100F9000F4D418E620F080003060FFF7D1FA05465F
:100FA0003068C0057FF524AEFFF7CAFA401B012860
:100FB0004FF00300F4D9A4E620F001003067306F51
:100FC00020F004003067306F20F0800026E000BF82
:100FD00020F001003067306F20F080003067306F04
:100FE00020F004003067FFF7ABFA054641F288377E
:100FF000306F80077FF506AEFFF7A2FA401BB842BC
:101000004FF00300F4D97CE640F004003067306F05
:1010100020F080003067306F40F001003067FFF74C
:101020008FFA054641F28837306F80073FF5EAAD09
:10103000FFF786FA401BB8424FF00300F4D960E690
:10104000411E0020B0EB116F02D00120704700BF9D
:101050004EF21002F023CEF2000251604EF6235100
:10106000CEF200010B700721906011607047000004
:101070007047000000000000704700000000000002
:1010800070470000000000007047000000000000F2
:1010900070470000000000007047000000000000E2
:1010A00090F83C20012A4FF0020262D010B580F87F
:1010B0003D200268B2F1844FD2F804E0D2F808C0B3
:1010C00004D12EF4700E4B684EEA030E4FF68F7368
:1010D0000C68CFF6FF5303EA0E0341F2FF7EC4F221
:1010E000000E2343724553600EDC40F2FF73C4F2DE
:1010F00000039A4218DCB2F1804F2DD040F2004339
:10110000C4F2000326E000BF43F6FF73C4F20023DD
:101110009A4215DC41F60003C4F200039A421BD048
:10112000B2F1844F18D01CE040F60003C4F2000373
:101130009A4211D040F60043C4F200030AE000BF17
:1011400044F60043C4F200239A4205D044F200035F
:10115000C4F200239A4204D12CF080038968194319
:1011600091600022012180F83D1080F83C20BDE80C
:10117000104010467047000070470000000000005B
:1011800060B310B5044690F83D0028B9002084F8FB
:101190003C00204600F024F8022084F83D0020683E
:1011A000211D00F0BDFF012084F8480084F83E00B6
:1011B00084F83F0084F8400084F8410084F842003D
:1011C00084F8430084F8440084F8450084F846001D
:1011D00084F8470084F83D00002010BD01207047CE
:1011E00010B584B040F600010068C4F200018842E6
:1011F00024D040F20041C4F20001884210D0B0F186
:10120000804F33D144F248503324C5F602000168C0
:1012100041F0010101600068039003981AE000BFEB
:1012200044F248503424C5F60200016841F002013E
:1012300001600068029002980CE000BF44F2485040
:101240003524C5F60200016841F004010160006820
:1012500001900198002100222046FFF749FA20461C
:1012600004B0BDE81040FFF72FBA00BF04B010BDB6
:1012700090F83C20012A4FF0020200F0DA8080B59D
:1012800080F83D208822D0F800C0CFF6CE72DCF87E
:1012900008301A40CCF808200B68B3F5801F2DDA0F
:1012A0004F2B41DC1F2B73DD202B18BF302B00F0A0
:1012B000AB80402B40F0F680D1F804E0C968DCF840
:1012C0002030DCF8202022F00102CCF82020DCF8CD
:1012D000182022F0F00242EA011123F00A02CCF8B1
:1012E000181042EA0E01CCF820104FF68872DCF894
:1012F0000810CFF6CF72114047318FE04F21C0F276
:1013000010018B4230DC1F21C0F210018B4243DD03
:101310002021C0F210018B4276D03021C0F21001A2
:101320008B4271D040216BE06F2B3DDD702B00F0C4
:101330008380B3F5805F73D0B3F5005F40F0B28077
:1013400001F1040E9EE80C40DCF808101A4321F469
:101350007F4142EA0E221143CCF80810DCF8081055
:1013600041F480415AE000BF6F21C0F210018B426E
:1013700040DD7021C0F210018B4245D01021C0F237
:1013800020018B4240D0B3F1201F3DD08AE000BF46
:10139000D3B3102B38D085E0B3F5801F34D0B3F130
:1013A000101F31D07EE000BF502B59D0602B79D177
:1013B000D1F804E0C968DCF82030DCF8202022F005
:1013C0001002CCF82020DCF8182022F4704242EA07
:1013D000013123F0A002CCF8181042EA0E11CCF82B
:1013E00020104FF68872DCF80810CFF6CF7211404B
:1013F000673113E05021C0F210018B4204D060210C
:10140000C0F210018B424DD14FF68872DCF8081003
:10141000CFF6CF721140194341F00701CCF8081004
:101420000022012180F83D10002180F83C10BDE829
:1014300080401046704700BF01F1040E9EE80C404A
:10144000DCF808101A4321F47F4142EA0E221143CE
:10145000CCF80810DCF8081041F07701DEE700BF97
:10146000D1F804E0C968DCF82030DCF8202022F054
:101470000102CCF82020DCF8182022F0F00242EA29
:10148000011123F00A02CCF8181042EA0E01CCF840
:1014900020104FF68872DCF80810CFF6CF7211409A
:1014A0005731BBE70122BCE7704700000000000095
:1014B000F0B581B004460068C5680669B10717D564
:1014C00015F0020114D06FF00201016101212177B2
:1014D0008069800704D02046FFF7E6FF06E000BFE2
:1014E000204600F0CDF8204600F01AFB00202077BF
:1014F000700719D515F0040016D020686FF00401AC
:10150000016102212177806910F4407F04D02046D8
:10151000FFF7CAFF06E000BF204600F0B1F8204602
:1015200000F0FEFA00202077300717D515F00800EC
:1015300014D020686FF00801016104212177C0698F
:10154000800703D02046FFF7AFFF05E0204600F0FC
:1015500097F8204600F0E4FA00202077F00619D52D
:1015600015F0100016D020686FF0100101610821FD
:101570002177C06910F4407F04D02046FFF794FF24
:1015800006E000BF204600F07BF8204600F0C8FAD5
:1015900000202077F00718BF15F0010006D0206862
:1015A0006FF001010161204600F06AFB05F0800741
:1015B00016F4025F18BF002F02D1F00509D410E025
:1015C00020686FF4025101612046FFF755FDF005D8
:1015D00007D537B120686FF4807101612046FFF7AD
:1015E00047FD700609D515F0400006D020686FF061
:1015F00040010161204600F047FBB00609D515F017
:10160000200006D020686FF0200101612046FFF71E
:1016100037FDF00209D515F4801006D020686FF46C
:10162000801101612046FFF733FDB00209D515F4A2
:10163000001006D020686FF4001101612046FFF70A
:1016400023FD700209D515F4800006D020686FF4E0
:10165000800101612046FFF71FFD30020CD515F413
:10166000000009D020686FF400010161204601B03C
:10167000BDE8F040FFF780BD01B0F0BD0000000004
:10168000704700000000000090F83C30012B01D1B1
:10169000022070474FEAB202052A00F2DD802DE9F0
:1016A000F041DFE802F003933F6923BD036844F291
:1016B000FF36C4F200261C6AB3421A6A24F0020400
:1016C00022F001021A621A46D3F804C052F818EF49
:1016D0008D6844EA0504D1F8008000F34381B3F13A
:1016E000844F00F04B8144F2000743E1036844F269
:1016F000FF37C4F20027D3F820C0BB421A6A22F495
:1017000080321A621A465C6852F8506F0D68D1F840
:1017100008E000F3A780B3F1844F00F0AF8044F2FB
:101720000007A7E00368B3F1844F1F6A1A6A27F421
:10173000007722F480721A621A465D6852F81CCF54
:101740008E6847EA062407D1CF6840F2FF463F0281
:1017500024F44064B7433C4344F2FF37D1F800E03F
:10176000C4F20027BB4200F3A980B3F1844F00F01C
:10177000B18044F20007A9E00368B3F1844F1F6A07
:101780001A6A27F4005722F480521A621A465D68DA
:1017900052F81CCF8E6847EA063407D1CF6844F66A
:1017A000FF763F0324F44044B7433C4344F2FF3701
:1017B000D1F800E0C4F20027BB4200F3A980B3F1E6
:1017C000844F00F0B18044F20007A9E00368B3F150
:1017D000844F1F6A1A6A27F0200722F010021A624B
:1017E0001A465D6852F818CF8E6847EA061407D18A
:1017F000CF686FF0400624F0C00406EA07173C43A8
:1018000044F2FF37D1F800E0C4F20027BB4200F3F6
:10181000C380B3F1844F00F0CB8044F20007C3E0F3
:10182000036844F2FF37C4F20027D3F820C0BB425C
:101830001A6A22F480121A621A465C6852F8506FD3
:101840000D68D1F808E000F3FD80B3F1844F00F09B
:10185000058144F20007FDE00121002280F83C20D0
:101860000846704744F60007C4F20027BB4205D083
:1018700044F20047C4F20027BB4204D14F6924F46C
:10188000803444EA07244FF68C775C60CFF6FE770D
:1018900003373E402CF4003746EA05041C654E68C9
:1018A00009699E6447EA0E471F621F6D47F00807EB
:1018B0001F651F6D27F004071F65F0E044F6000761
:1018C000C4F20027BB4205D044F20047C4F200270F
:1018D000BB4206D1D1E905763E4325F4405545EAA1
:1018E00006154FF68C765D60CFF6FE760CEA06079D
:1018F00047EA0E07DF614F680969DF631C62DF6931
:1019000047F00807DF61DF6927F00407DF61C6E001
:1019100044F60007C4F20027BB4205D044F200475A
:10192000C4F20027BB4206D1D1E905763E4325F437
:10193000404545EA861548F6FF465D60CFF6FF66EE
:101940000CEA060747EA0E27DF614F6809691F6442
:101950001C62DF6947F40067DF61DF6927F4806795
:10196000DF619BE044F60007C4F20027BB4205D0CC
:1019700044F20047C4F20027BB4205D1CF6824F0EF
:101980000C0427F004073C43B3422FDCB3F1844F2F
:1019900038D044F2000631E044F60007C4F20027D4
:1019A000BB4205D044F20047C4F20027BB4206D137
:1019B000D1E905763E4325F4406545EA860548F6BB
:1019C000FF465D60CFF6FF660CEA060747EA0E2782
:1019D0009F614F6809699F631C629F6947F40067B4
:1019E0009F619F6927F480679F6157E044F6000676
:1019F000C4F20026B34205D044F20046C4F20026E9
:101A0000B34206D12CF44077D1E90565374347EA64
:101A1000050C4FF68C75C3F804C0CFF6FE750EEAC0
:101A2000050747EA08079F614F6809695F631C6201
:101A30009F6947F008079F619F6927F004079F612E
:101A40002DE000BF44F60007C4F20027BB4205D0DA
:101A500044F20047C4F20027BB4204D14F6924F48A
:101A6000802444EA872448F6FF475C60CFF6FF678E
:101A700007F540773E402CF4001746EA05241C6524
:101A80004E680969DE6447EA0E571F621F6D47F40E
:101A900000671F651F6D27F480671F6509021368C3
:101AA000194311600021BDE8F041002280F83C207C
:101AB000084670470000000060B310B5044690F877
:101AC0003D0028B9002084F83C00204600F024F8AE
:101AD000022084F83D002068211D00F021FB012038
:101AE00084F8480084F83E0084F83F0084F8400001
:101AF00084F8410084F8420084F8430084F84400EC
:101B000084F8450084F8460084F8470084F83D00D6
:101B1000002010BD01207047704700000000000049
:101B2000704700000000000080B5C9B10B1F4FF0E6
:101B30003F0C4FEAB30E4322BEF1040F38BF0CEB4B
:101B4000B302825C012A13D1BEF1030F1ED8DFE875
:101B50000EF00319111500BF022280F83F2018E093
:101B600090F83E20012A03D1022280F83E2010E0A6
:101B7000012080BD022280F841200AE0022280F884
:101B8000422006E0022280F8402002E0022280F893
:101B90004320026801F01F000121B2F1844F01FAD5
:101BA00000F0116A21EA00011162116A40EA0100A5
:101BB000106219DA40F2FF70C4F2000082422DDD9B
:101BC00040F60000C4F20000824246D040F60040D9
:101BD000C4F20000824240D041F60000C4F200008E
:101BE00082423AD046E000BF44F2FF30C4F2002007
:101BF00082421DDD44F20040C4F20020824220D027
:101C000044F60040C4F20020824226D044F6000090
:101C1000C4F20020824214D02CE000BFB2F1804F09
:101C20001BD040F20040C4F20000824215D021E0F7
:101C3000B2F1844F05D044F20000C4F20020824289
:101C400018D144F2000142F48040C4F20021536CE8
:101C5000884243F4004050640CD107219068C0F2E0
:101C6000010101400020062918BFB1F5803F01D1D4
:101C700080BD00BF106840F001001060002080BDF2
:101C800070470000000000007047000000000000E6
:101C9000FEE7000000000000B0B586B0002005900F
:101CA000CDE90300CDE9010044F2405040F2004488
:101CB000C5F60200C5F6020400224FF47045016823
:101CC00041F0020101600068009000984FF47041FB
:101CD0002046FEF72DFC012001A9CDE902000220DB
:101CE000049020460195FEF74BFB06B0B0BD000006
:101CF000B0B594B040F2A40040F60005C2F2004036
:101D000000210D91C4F20005CDE90B11CDE90811B8
:101D1000CDE90611CDE90411CDE90211CDE900119B
:101D200005604722C0E9012142F20F728161C0E9DA
:101D30000321FFF725FA08B1FEF70AFB4FF48050A4
:101D40000A9040F2A4000AA9C2F20040FFF790FAFC
:101D500008B1FEF7FDFA40F2A400C2F20040FFF71E
:101D6000ABFE08B1FEF7F4FA40F2A40007A9C2F2F4
:101D70000040002407940994FFF792F908B1FEF798
:101D8000E7FA60206946CDE9000440F2A400002291
:101D9000C2F2004002940494FFF776FC08B1FEF70B
:101DA000D7FA40F2A4046946C2F200440C2220464D
:101DB000FFF76AFC08B1FEF7CBFA20680021A842C1
:101DC0001391CDE9111110910F9113D040F2004100
:101DD000C4F20001884228D144F24050C5F6020006
:101DE000016841F00201016000680E900E98202009
:101DF0000DE000BF44F24050C5F60200016841F01A
:101E00000201016000680E900E984FF410700F9060
:101E1000022010900021139040F20040CDE91111F2
:101E2000C5F602000FA9FEF7ABFA14B0B0BD000072
:101E3000FEE7000000000000FEE7000000000000D8
:101E400070470000000000002DE9F04F83B0044609
:101E500044F22C470B20C5F6020704FB00F9381D9D
:101E600001904FF47870884600FA09F039684FEA1B
:101E7000440B07F19402029221EA000038604FF00F
:101E8000807000FA0BFA57F82C0C20EA0A0047F889
:101E90002C0CFEF755FB4FF00071064601FA0BF5CE
:101EA00057F82C0C284209D0FEF74AFB801B322839
:101EB000F6D9032003B0BDE8F08F00BFD8F80000CA
:101EC00002280FD1D8F8040002281DD010BB57F803
:101ED0002C1C49F20002C0F2D032C1F3C10122FA37
:101EE00001F11CE0E0004FF47C71043057F8042C41
:101EF00001FA00F022EA000040F0030047F8040C69
:101F0000002003B0BDE8F08F43F20061C0F26E1113
:101F100005E000BF40F6FF01C0F23D010131D8F8F5
:101F200008E0B1FBFEF341F2FF11C0F27A018B42EF
:101F300002D94FF0180C13E040F6FF01C0F23D014A
:101F40008B4203D94FF0100C0AE000BF48F27F46E5
:101F50004FF0020CC0F21E06B34288BF4FF0080CCF
:101F6000E6004FF47C71B1406FF0030257F8043C77
:101F70005140321D19400EFA02F21143014347F855
:101F8000041C57F8041C01F0030181425ED11B20A0
:101F9000396800FA09F008F10C030CFA09F221EA99
:101FA0000000104338604FF600660FCBCFF6FF7687
:101FB000A0F1010006EB412140EA010040F20001DE
:101FC000CFF6FF7101EB0241A3F1010240EA0100EB
:101FD000019940EA02606FF0FF0241F82B00D8E956
:101FE0000701A0F1010002EB012140EA0100029982
:101FF00041F824001CB9386840F020003860D8F857
:10200000240070B107EB8B014FF6F8738A689A438E
:1020100042EAC00088600120396800FA09F00843EC
:10202000386057F82C0C40EA0A0047F82C0CFEF7F1
:1020300087FA044657F82C0C28427FF461AFFEF76C
:102040007FFA001B3228F5D933E700BF012003B027
:10205000BDE8F08F000000007047000000000000A5
:10206000FEF776BA000000004EF6885140F20000FC
:10207000CEF20001C0F6000041F8800C086840F480
:102080007000086070470000B0B586B00020059071
:10209000CDE90300CDE9010044F2405040F2004494
:1020A000C5F60200C5F6020401AD016841F0020167
:1020B0000160016800910099016841F0040101602C
:1020C0000068009000984FF4C040019001200290F9
:1020D00020462946FEF754F94FF41040019020465F
:1020E0002946FEF74DF906B0B0BD00000000000023
:1020F00040F20C00C2F20040FFF7DAB90000000025
:1021000040F25800C2F20040FFF7D2B900000000D0
:1021100040F2A400C2F20040FFF7CAB9000000007C
:1021200040F2FF72C4F200029042026810DD40F6F5
:102130000003C4F20003984218BFB0F1844F10D0DE
:1021400040F60043C4F2000398420AD00DE000BFFD
:10215000B0F1804F05D040F20043C4F20003984232
:1021600003D122F070024B681A4341F6FF7344F228
:10217000FF3CC4F20003C4F2002C984214DC40F689
:10218000FF33C4F2000398421CDCB0F1804F3DD015
:1021900040F20043C4F20003984237D040F60003F7
:1021A000C4F2000330E000BF60451DDC42F20003D2
:1021B000C4F20003984218BFB0F1844F26D044F215
:1021C00000031FE040F60043C4F2000398421DD014
:1021D00041F60003C4F20003984217D041F60043D1
:1021E000C4F2000310E000BF44F20043C4F2002335
:1021F00098420BD044F60043C4F20023984205D025
:1022000044F60003C4F20023984203D122F4407242
:10221000CB681A4310B522F08002D1F800E04C6977
:102220008B6822430260C3626045C0F828E0BDE8C5
:10223000104009DCB0F1844F12D044F20002C4F225
:10224000002290420CD00DE044F60002C4F20022BD
:10225000904205D044F20042C4F20022904201D1E3
:1022600009690163012141610169C90708BF70471C
:10227000016921F0010101617047000000000000C8
:10228000FEE700000000000010B540F200444FF4EB
:102290008041C5F6020401222046FEF749F94FF4B9
:1022A000005100222046FEF743F94FF4004101227D
:1022B0002046FEF73DF94FF4805100222046FEF7FC
:1022C00037F940F2A40041F28831C2F200400068C0
:1022D00041634FF47A71016410BD000000000000FA
:1022E000B0B001250995FEF7AFF900200026FEF7F2
:1022F000BFF90120FEF7BCF902200227FEF7B8F96A
:102300000320FEF7B5F90420FEF7B2F90520FEF729
:10231000AFF90620FEF7ACF90720FEF7A9F908206F
:10232000FEF7A6F90920FEF7A3F90A20FEF7A0F9A7
:102330000B20FEF79DF90C20FEF79AF90D20FEF711
:1023400097F90E20FEF794F90F20FEF791F909ACEA
:1023500048F21F700B9040F201100C9020460A9634
:10236000FEF73EF90420FEF78FF9FEF701F9201D74
:102370009821FDF7C0FF0020CDE90766FEF734FA8B
:1023800010B172B6FEE700BF40200E9009A8099771
:10239000CDE90C561296FEF7F3FB18B172B600BFEA
:1023A000FEE700BF0F20019000200690CDE902005B
:1023B000CDE9040001A80121FEF732FA10B172B68E
:1023C000FEE700BFFFF768FCFFF792FCFFF75CFE3B
:1023D00040F2A4040021C2F200442046FFF7A4FB0F
:1023E0000C212046FFF7A0FB4FF47A70FDF7B4FFF5
:1023F000FFF74AFFF8E702E008C8121F08C1002AE9
:10240000FAD170477047002001E001C1121F002A75
:10241000FBD1704744240008000000240C00000099
:10242000F6230008442400080000002000040000F7
:1024300006240008502400080C000024E8000000D6
:102440000624000801000000100000000090D003E6
:04000005080002B13C
:00000001FF
